{
  "contractName": "BattleShip",
  "abi": [
    {
      "constant": true,
      "inputs": [
        {
          "name": "",
          "type": "uint256"
        }
      ],
      "name": "contracts",
      "outputs": [
        {
          "name": "",
          "type": "address"
        }
      ],
      "payable": false,
      "stateMutability": "view",
      "type": "function"
    },
    {
      "constant": false,
      "inputs": [
        {
          "name": "p2",
          "type": "bytes20"
        }
      ],
      "name": "new_game",
      "outputs": [
        {
          "name": "game_address",
          "type": "address"
        }
      ],
      "payable": false,
      "stateMutability": "nonpayable",
      "type": "function"
    },
    {
      "constant": true,
      "inputs": [],
      "name": "find_game",
      "outputs": [
        {
          "name": "",
          "type": "address[]"
        }
      ],
      "payable": false,
      "stateMutability": "view",
      "type": "function"
    }
  ],
  "bytecode": "0x608060405234801561001057600080fd5b50614f2e806100206000396000f3006080604052600436106200005b576000357c0100000000000000000000000000000000000000000000000000000000900463ffffffff1680631ca1841c1462000060578063474da79a14620000d15780638c55e9d51462000141575b600080fd5b3480156200006d57600080fd5b5062000078620001c0565b6040518080602001828103825283818151815260200191508051906020019060200280838360005b83811015620000bd578082015181840152602081019050620000a0565b505050509050019250505060405180910390f35b348015620000de57600080fd5b50620000ff600480360381019080803590602001909291905050506200052b565b604051808273ffffffffffffffffffffffffffffffffffffffff1673ffffffffffffffffffffffffffffffffffffffff16815260200191505060405180910390f35b3480156200014e57600080fd5b506200017e60048036038101908080356bffffffffffffffffffffffff191690602001909291905050506200056a565b604051808273ffffffffffffffffffffffffffffffffffffffff1673ffffffffffffffffffffffffffffffffffffffff16815260200191505060405180910390f35b606060006060600080600080549050111515620001dc57600080fd5b600080549050925060008054806020026020016040519081016040528092919081815260200182805480156200026857602002820191906000526020600020905b8160009054906101000a900473ffffffffffffffffffffffffffffffffffffffff1673ffffffffffffffffffffffffffffffffffffffff16815260200190600101908083116200021d575b50505050509150600090505b828160ff16101562000522573373ffffffffffffffffffffffffffffffffffffffff1660008260ff16815481101515620002aa57fe5b9060005260206000200160009054906101000a900473ffffffffffffffffffffffffffffffffffffffff1673ffffffffffffffffffffffffffffffffffffffff1663a2a5c6386040518163ffffffff167c01000000000000000000000000000000000000000000000000000000000281526004016040805180830381600087803b1580156200033857600080fd5b505af11580156200034d573d6000803e3d6000fd5b505050506040513d601f19601f8201168201806040525060408110156200037357600080fd5b810190809190505060006002811015156200038a57fe5b602002015173ffffffffffffffffffffffffffffffffffffffff1614158015620004d757503373ffffffffffffffffffffffffffffffffffffffff1660008260ff16815481101515620003d957fe5b9060005260206000200160009054906101000a900473ffffffffffffffffffffffffffffffffffffffff1673ffffffffffffffffffffffffffffffffffffffff1663a2a5c6386040518163ffffffff167c01000000000000000000000000000000000000000000000000000000000281526004016040805180830381600087803b1580156200046757600080fd5b505af11580156200047c573d6000803e3d6000fd5b505050506040513d601f19601f820116820180604052506040811015620004a257600080fd5b81019080919050506001600281101515620004b957fe5b602002015173ffffffffffffffffffffffffffffffffffffffff1614155b156200051457818160ff16815181101515620004ef57fe5b906020019060200201600073ffffffffffffffffffffffffffffffffffffffff168152505b808060010191505062000274565b81935050505090565b6000818154811015156200053b57fe5b906000526020600020016000915054906101000a900473ffffffffffffffffffffffffffffffffffffffff1681565b60008033836c0100000000000000000000000090046200058962000681565b808373ffffffffffffffffffffffffffffffffffffffff1673ffffffffffffffffffffffffffffffffffffffff1681526020018273ffffffffffffffffffffffffffffffffffffffff1673ffffffffffffffffffffffffffffffffffffffff16815260200192505050604051809103906000f0801580156200060f573d6000803e3d6000fd5b50905060008190806001815401808255809150509060018203906000526020600020016000909192909190916101000a81548173ffffffffffffffffffffffffffffffffffffffff021916908373ffffffffffffffffffffffffffffffffffffffff1602179055505080915050919050565b604051614870806200069383390190560060806040523480156200001157600080fd5b5060405160408062004870833981018060405281019080805190602001909291908051906020019092919050505060008060ff600360046101000a81548160ff021916908360ff1602179055506000600360016101000a81548160ff0219169083151502179055506000600360026101000a81548160ff0219169083151502179055506000601060003373ffffffffffffffffffffffffffffffffffffffff1673ffffffffffffffffffffffffffffffffffffffff16815260200190815260200160002060006101000a81548160ff0219169083151502179055508360016000600281101515620000fe57fe5b0160006101000a81548173ffffffffffffffffffffffffffffffffffffffff021916908373ffffffffffffffffffffffffffffffffffffffff1602179055506000600560006002811015156200015057fe5b602091828204019190066101000a81548160ff021916908360ff1602179055506000600460006002811015156200018357fe5b602091828204019190066101000a81548160ff021916908360ff160217905550600060056001600281101515620001b657fe5b602091828204019190066101000a81548160ff021916908360ff160217905550600060046001600281101515620001e957fe5b602091828204019190066101000a81548160ff021916908360ff1602179055506000601160008673ffffffffffffffffffffffffffffffffffffffff1673ffffffffffffffffffffffffffffffffffffffff16815260200190815260200160002060006101000a81548160ff021916908360ff160217905550600091505b600a8210156200031857600090505b600a8110156200030a5760008060008673ffffffffffffffffffffffffffffffffffffffff1673ffffffffffffffffffffffffffffffffffffffff16815260200190815260200160002083600a81101515620002ce57fe5b0182600a81101515620002dd57fe5b602091828204019190066101000a81548160ff021916908315150217905550808060010191505062000276565b818060010192505062000267565b600073ffffffffffffffffffffffffffffffffffffffff168373ffffffffffffffffffffffffffffffffffffffff161415156200050757826001806002811015156200036057fe5b0160006101000a81548173ffffffffffffffffffffffffffffffffffffffff021916908373ffffffffffffffffffffffffffffffffffffffff1602179055506000601060008573ffffffffffffffffffffffffffffffffffffffff1673ffffffffffffffffffffffffffffffffffffffff16815260200190815260200160002060006101000a81548160ff0219169083151502179055506000601160008573ffffffffffffffffffffffffffffffffffffffff1673ffffffffffffffffffffffffffffffffffffffff16815260200190815260200160002060006101000a81548160ff021916908360ff160217905550600091505b600a8210156200050657600090505b600a811015620004f85760008060008573ffffffffffffffffffffffffffffffffffffffff1673ffffffffffffffffffffffffffffffffffffffff16815260200190815260200160002083600a81101515620004bc57fe5b0182600a81101515620004cb57fe5b602091828204019190066101000a81548160ff021916908315150217905550808060010191505062000464565b818060010192505062000455565b5b600091505b60148210156200062c5760ff600660006002811015156200052957fe5b01836014811015156200053857fe5b602091828204019190066101000a81548160ff021916908360ff16021790555060ff600660016002811015156200056b57fe5b01836014811015156200057a57fe5b602091828204019190066101000a81548160ff021916908360ff16021790555060ff60086000600281101515620005ad57fe5b0183601481101515620005bc57fe5b602091828204019190066101000a81548160ff021916908360ff16021790555060ff60086001600281101515620005ef57fe5b0183601481101515620005fe57fe5b602091828204019190066101000a81548160ff021916908360ff16021790555081806001019250506200050c565b600091505b6050821015620006d35760ff600a60006002811015156200064e57fe5b60030201836050811015156200066057fe5b602091828204019190066101000a81548160ff021916908360ff16021790555060ff600a60016002811015156200069357fe5b6003020183605081101515620006a557fe5b602091828204019190066101000a81548160ff021916908360ff160217905550818060010192505062000631565b5050505061418980620006e76000396000f300608060405260043610610112576000357c0100000000000000000000000000000000000000000000000000000000900463ffffffff16806318f3cfef14610117578063301f6bc7146101465780635f8eb22e146101bc5780636defbf801461020d578063721e7a6e146102245780638b299903146102755780639e0551c6146102a4578063a2a5c63814610311578063a74427f614610364578063a9ab6c11146103ad578063acc5be29146103ea578063ad5f1d331461041b578063b688a363146104e3578063b69d8666146104fa578063b74300c01461052b578063d1f8d8fc1461057c578063d57dd710146105cf578063ddcf9eff146105fe578063e100d13a1461062d578063f0d6c2ef1461065e575b600080fd5b34801561012357600080fd5b5061012c6106b9565b604051808215151515815260200191505060405180910390f35b34801561015257600080fd5b5061015b6106cc565b604051808260026000925b818410156101ac5782846020020151601460200280838360005b8381101561019b578082015181840152602081019050610180565b505050509050019260010192610166565b9250505091505060405180910390f35b3480156101c857600080fd5b506101f16004803603810190808035906020019092919080359060200190929190505050610794565b604051808260ff1660ff16815260200191505060405180910390f35b34801561021957600080fd5b506102226107d1565b005b34801561023057600080fd5b506102596004803603810190808035906020019092919080359060200190929190505050610bf1565b604051808260ff1660ff16815260200191505060405180910390f35b34801561028157600080fd5b5061028a610c2b565b604051808215151515815260200191505060405180910390f35b3480156102b057600080fd5b506102cf60048036038101908080359060200190929190505050610c3d565b604051808273ffffffffffffffffffffffffffffffffffffffff1673ffffffffffffffffffffffffffffffffffffffff16815260200191505060405180910390f35b34801561031d57600080fd5b50610326610c72565b6040518082600260200280838360005b83811015610351578082015181840152602081019050610336565b5050505090500191505060405180910390f35b34801561037057600080fd5b506103ab600480360381019080803515159060200190929190803560ff169060200190929190803560ff169060200190929190505050610cf3565b005b3480156103b957600080fd5b506103e8600480360381019080803560ff169060200190929190803560ff169060200190929190505050612d2c565b005b3480156103f657600080fd5b506103ff61365d565b604051808260ff1660ff16815260200191505060405180910390f35b34801561042757600080fd5b506104306136b1565b604051808360026000925b818410156104815782846020020151601460200280838360005b83811015610470578082015181840152602081019050610455565b50505050905001926001019261043b565b925050508260026000925b818410156104d25782846020020151605060200280838360005b838110156104c15780820151818401526020810190506104a6565b50505050905001926001019261048c565b925050509250505060405180910390f35b3480156104ef57600080fd5b506104f86138d5565b005b34801561050657600080fd5b5061050f613c3a565b604051808260ff1660ff16815260200191505060405180910390f35b34801561053757600080fd5b506105606004803603810190808035906020019092919080359060200190929190505050613d1b565b604051808260ff1660ff16815260200191505060405180910390f35b34801561058857600080fd5b50610591613d55565b6040518082601460200280838360005b838110156105bc5780820151818401526020810190506105a1565b5050505090500191505060405180910390f35b3480156105db57600080fd5b506105e4613f1e565b604051808215151515815260200191505060405180910390f35b34801561060a57600080fd5b50610613613f31565b604051808215151515815260200191505060405180910390f35b34801561063957600080fd5b50610642613f85565b604051808260ff1660ff16815260200191505060405180910390f35b34801561066a57600080fd5b5061069f600480360381019080803573ffffffffffffffffffffffffffffffffffffffff169060200190929190505050613f98565b604051808215151515815260200191505060405180910390f35b600360029054906101000a900460ff1681565b6106d4614071565b60011515600360029054906101000a900460ff1615151415156106f657600080fd5b6006600280602002604051908101604052809291906000905b8282101561078b57838201601480602002604051908101604052809291908260148015610777576020028201916000905b82829054906101000a900460ff1660ff16815260200190600101906020826000010492830192600103820291508084116107405790505b50505050508152602001906001019061070f565b50505050905090565b600a826002811015156107a357fe5b60030201816050811015156107b457fe5b60209182820401919006915091509054906101000a900460ff1681565b600160006002811015156107e157fe5b0160009054906101000a900473ffffffffffffffffffffffffffffffffffffffff1673ffffffffffffffffffffffffffffffffffffffff163373ffffffffffffffffffffffffffffffffffffffff161480610897575060018060028110151561084657fe5b0160009054906101000a900473ffffffffffffffffffffffffffffffffffffffff1673ffffffffffffffffffffffffffffffffffffffff163373ffffffffffffffffffffffffffffffffffffffff16145b15156108a257600080fd5b600160006002811015156108b257fe5b0160009054906101000a900473ffffffffffffffffffffffffffffffffffffffff1673ffffffffffffffffffffffffffffffffffffffff163373ffffffffffffffffffffffffffffffffffffffff161415610928576000600360006101000a81548160ff021916908360ff160217905550610945565b6001600360006101000a81548160ff021916908360ff1602179055505b60001515600360019054906101000a900460ff16151514801561097b575060001515600360029054906101000a900460ff161515145b8015610a1857506014601160006001600360009054906101000a900460ff1660ff166002811015156109a957fe5b0160009054906101000a900473ffffffffffffffffffffffffffffffffffffffff1673ffffffffffffffffffffffffffffffffffffffff1673ffffffffffffffffffffffffffffffffffffffff16815260200190815260200160002060009054906101000a900460ff1660ff16145b1515610a2357600080fd5b6001601060006001600360009054906101000a900460ff1660ff16600281101515610a4a57fe5b0160009054906101000a900473ffffffffffffffffffffffffffffffffffffffff1673ffffffffffffffffffffffffffffffffffffffff1673ffffffffffffffffffffffffffffffffffffffff16815260200190815260200160002060006101000a81548160ff021916908315150217905550600115156010600060016000600281101515610ad557fe5b0160009054906101000a900473ffffffffffffffffffffffffffffffffffffffff1673ffffffffffffffffffffffffffffffffffffffff1673ffffffffffffffffffffffffffffffffffffffff16815260200190815260200160002060009054906101000a900460ff161515148015610bce57506001151560106000600180600281101515610b6057fe5b0160009054906101000a900473ffffffffffffffffffffffffffffffffffffffff1673ffffffffffffffffffffffffffffffffffffffff1673ffffffffffffffffffffffffffffffffffffffff16815260200190815260200160002060009054906101000a900460ff161515145b15610bef576001600360016101000a81548160ff0219169083151502179055505b565b600682600281101515610c0057fe5b0181601481101515610c0e57fe5b60209182820401919006915091509054906101000a900460ff1681565b6003809054906101000a900460ff1681565b600181600281101515610c4c57fe5b016000915054906101000a900473ffffffffffffffffffffffffffffffffffffffff1681565b610c7a6140a0565b6001600280602002604051908101604052809291908260028015610ce9576020028201915b8160009054906101000a900473ffffffffffffffffffffffffffffffffffffffff1673ffffffffffffffffffffffffffffffffffffffff1681526020019060010190808311610c9f575b5050505050905090565b600060016000600281101515610d0557fe5b0160009054906101000a900473ffffffffffffffffffffffffffffffffffffffff1673ffffffffffffffffffffffffffffffffffffffff163373ffffffffffffffffffffffffffffffffffffffff161480610dbb5750600180600281101515610d6a57fe5b0160009054906101000a900473ffffffffffffffffffffffffffffffffffffffff1673ffffffffffffffffffffffffffffffffffffffff163373ffffffffffffffffffffffffffffffffffffffff16145b1515610dc657600080fd5b60016000600281101515610dd657fe5b0160009054906101000a900473ffffffffffffffffffffffffffffffffffffffff1673ffffffffffffffffffffffffffffffffffffffff163373ffffffffffffffffffffffffffffffffffffffff161415610e4c576000600360006101000a81548160ff021916908360ff160217905550610e69565b6001600360006101000a81548160ff021916908360ff1602179055505b60001515600360019054906101000a900460ff161515148015610e9f575060001515600360029054906101000a900460ff161515145b1515610eaa57600080fd5b6000601160006001600360009054906101000a900460ff1660ff16600281101515610ed157fe5b0160009054906101000a900473ffffffffffffffffffffffffffffffffffffffff1673ffffffffffffffffffffffffffffffffffffffff1673ffffffffffffffffffffffffffffffffffffffff16815260200190815260200160002060009054906101000a900460ff1660ff161415611476576001151584151514156111e35760078260ff16101515610f6357600080fd5b600090505b60048160ff1610156111de5760016000806001600360009054906101000a900460ff1660ff16600281101515610f9a57fe5b0160009054906101000a900473ffffffffffffffffffffffffffffffffffffffff1673ffffffffffffffffffffffffffffffffffffffff1673ffffffffffffffffffffffffffffffffffffffff1681526020019081526020016000208460ff16600a8110151561100657fe5b0182840160ff16600a8110151561101957fe5b602091828204019190066101000a81548160ff021916908315150217905550600a8183010283016006600360009054906101000a900460ff1660ff1660028110151561106157fe5b01601160006001600360009054906101000a900460ff1660ff1660028110151561108757fe5b0160009054906101000a900473ffffffffffffffffffffffffffffffffffffffff1673ffffffffffffffffffffffffffffffffffffffff1673ffffffffffffffffffffffffffffffffffffffff16815260200190815260200160002060009054906101000a900460ff1660ff1660148110151561110057fe5b602091828204019190066101000a81548160ff021916908360ff160217905550601160006001600360009054906101000a900460ff1660ff1660028110151561114557fe5b0160009054906101000a900473ffffffffffffffffffffffffffffffffffffffff1673ffffffffffffffffffffffffffffffffffffffff1673ffffffffffffffffffffffffffffffffffffffff168152602001908152602001600020600081819054906101000a900460ff168092919060010191906101000a81548160ff021916908360ff160217905550508080600101915050610f68565b611471565b60078360ff161015156111f557600080fd5b600090505b60048160ff1610156114705760016000806001600360009054906101000a900460ff1660ff1660028110151561122c57fe5b0160009054906101000a900473ffffffffffffffffffffffffffffffffffffffff1673ffffffffffffffffffffffffffffffffffffffff1673ffffffffffffffffffffffffffffffffffffffff16815260200190815260200160002082850160ff16600a8110151561129a57fe5b018360ff16600a811015156112ab57fe5b602091828204019190066101000a81548160ff021916908315150217905550600a8202818401016006600360009054906101000a900460ff1660ff166002811015156112f357fe5b01601160006001600360009054906101000a900460ff1660ff1660028110151561131957fe5b0160009054906101000a900473ffffffffffffffffffffffffffffffffffffffff1673ffffffffffffffffffffffffffffffffffffffff1673ffffffffffffffffffffffffffffffffffffffff16815260200190815260200160002060009054906101000a900460ff1660ff1660148110151561139257fe5b602091828204019190066101000a81548160ff021916908360ff160217905550601160006001600360009054906101000a900460ff1660ff166002811015156113d757fe5b0160009054906101000a900473ffffffffffffffffffffffffffffffffffffffff1673ffffffffffffffffffffffffffffffffffffffff1673ffffffffffffffffffffffffffffffffffffffff168152602001908152602001600020600081819054906101000a900460ff168092919060010191906101000a81548160ff021916908360ff1602179055505080806001019150506111fa565b5b612d26565b6004601160006001600360009054906101000a900460ff1660ff1660028110151561149d57fe5b0160009054906101000a900473ffffffffffffffffffffffffffffffffffffffff1673ffffffffffffffffffffffffffffffffffffffff1673ffffffffffffffffffffffffffffffffffffffff16815260200190815260200160002060009054906101000a900460ff1660ff1614806115a757506007601160006001600360009054906101000a900460ff1660ff1660028110151561153857fe5b0160009054906101000a900473ffffffffffffffffffffffffffffffffffffffff1673ffffffffffffffffffffffffffffffffffffffff1673ffffffffffffffffffffffffffffffffffffffff16815260200190815260200160002060009054906101000a900460ff1660ff16145b15611f6257600115158415151415611a8d5760088260ff1610801561180257506000806001600360009054906101000a900460ff1660ff166002811015156115eb57fe5b0160009054906101000a900473ffffffffffffffffffffffffffffffffffffffff1673ffffffffffffffffffffffffffffffffffffffff1673ffffffffffffffffffffffffffffffffffffffff1681526020019081526020016000208360ff16600a8110151561165757fe5b018260ff16600a8110151561166857fe5b602091828204019190069054906101000a900460ff168061173f57506000806001600360009054906101000a900460ff1660ff166002811015156116a857fe5b0160009054906101000a900473ffffffffffffffffffffffffffffffffffffffff1673ffffffffffffffffffffffffffffffffffffffff1673ffffffffffffffffffffffffffffffffffffffff1681526020019081526020016000208360ff16600a8110151561171457fe5b016001830160ff16600a8110151561172857fe5b602091828204019190069054906101000a900460ff165b8061180057506000806001600360009054906101000a900460ff1660ff1660028110151561176957fe5b0160009054906101000a900473ffffffffffffffffffffffffffffffffffffffff1673ffffffffffffffffffffffffffffffffffffffff1673ffffffffffffffffffffffffffffffffffffffff1681526020019081526020016000208360ff16600a811015156117d557fe5b016002830160ff16600a811015156117e957fe5b602091828204019190069054906101000a900460ff165b155b151561180d57600080fd5b600090505b60038160ff161015611a885760016000806001600360009054906101000a900460ff1660ff1660028110151561184457fe5b0160009054906101000a900473ffffffffffffffffffffffffffffffffffffffff1673ffffffffffffffffffffffffffffffffffffffff1673ffffffffffffffffffffffffffffffffffffffff1681526020019081526020016000208460ff16600a811015156118b057fe5b0182840160ff16600a811015156118c357fe5b602091828204019190066101000a81548160ff021916908315150217905550600a8183010283016006600360009054906101000a900460ff1660ff1660028110151561190b57fe5b01601160006001600360009054906101000a900460ff1660ff1660028110151561193157fe5b0160009054906101000a900473ffffffffffffffffffffffffffffffffffffffff1673ffffffffffffffffffffffffffffffffffffffff1673ffffffffffffffffffffffffffffffffffffffff16815260200190815260200160002060009054906101000a900460ff1660ff166014811015156119aa57fe5b602091828204019190066101000a81548160ff021916908360ff160217905550601160006001600360009054906101000a900460ff1660ff166002811015156119ef57fe5b0160009054906101000a900473ffffffffffffffffffffffffffffffffffffffff1673ffffffffffffffffffffffffffffffffffffffff1673ffffffffffffffffffffffffffffffffffffffff168152602001908152602001600020600081819054906101000a900460ff168092919060010191906101000a81548160ff021916908360ff160217905550508080600101915050611812565b611f5d565b60088360ff16108015611cd657506000806001600360009054906101000a900460ff1660ff16600281101515611abf57fe5b0160009054906101000a900473ffffffffffffffffffffffffffffffffffffffff1673ffffffffffffffffffffffffffffffffffffffff1673ffffffffffffffffffffffffffffffffffffffff1681526020019081526020016000208360ff16600a81101515611b2b57fe5b018260ff16600a81101515611b3c57fe5b602091828204019190069054906101000a900460ff1680611c1357506000806001600360009054906101000a900460ff1660ff16600281101515611b7c57fe5b0160009054906101000a900473ffffffffffffffffffffffffffffffffffffffff1673ffffffffffffffffffffffffffffffffffffffff1673ffffffffffffffffffffffffffffffffffffffff1681526020019081526020016000206001840160ff16600a81101515611beb57fe5b018260ff16600a81101515611bfc57fe5b602091828204019190069054906101000a900460ff165b80611cd457506000806001600360009054906101000a900460ff1660ff16600281101515611c3d57fe5b0160009054906101000a900473ffffffffffffffffffffffffffffffffffffffff1673ffffffffffffffffffffffffffffffffffffffff1673ffffffffffffffffffffffffffffffffffffffff1681526020019081526020016000206002840160ff16600a81101515611cac57fe5b018260ff16600a81101515611cbd57fe5b602091828204019190069054906101000a900460ff165b155b1515611ce157600080fd5b600090505b60038160ff161015611f5c5760016000806001600360009054906101000a900460ff1660ff16600281101515611d1857fe5b0160009054906101000a900473ffffffffffffffffffffffffffffffffffffffff1673ffffffffffffffffffffffffffffffffffffffff1673ffffffffffffffffffffffffffffffffffffffff16815260200190815260200160002082850160ff16600a81101515611d8657fe5b018360ff16600a81101515611d9757fe5b602091828204019190066101000a81548160ff021916908315150217905550600a8202818401016006600360009054906101000a900460ff1660ff16600281101515611ddf57fe5b01601160006001600360009054906101000a900460ff1660ff16600281101515611e0557fe5b0160009054906101000a900473ffffffffffffffffffffffffffffffffffffffff1673ffffffffffffffffffffffffffffffffffffffff1673ffffffffffffffffffffffffffffffffffffffff16815260200190815260200160002060009054906101000a900460ff1660ff16601481101515611e7e57fe5b602091828204019190066101000a81548160ff021916908360ff160217905550601160006001600360009054906101000a900460ff1660ff16600281101515611ec357fe5b0160009054906101000a900473ffffffffffffffffffffffffffffffffffffffff1673ffffffffffffffffffffffffffffffffffffffff1673ffffffffffffffffffffffffffffffffffffffff168152602001908152602001600020600081819054906101000a900460ff168092919060010191906101000a81548160ff021916908360ff160217905550508080600101915050611ce6565b5b612d25565b6009601160006001600360009054906101000a900460ff1660ff16600281101515611f8957fe5b0160009054906101000a900473ffffffffffffffffffffffffffffffffffffffff1673ffffffffffffffffffffffffffffffffffffffff1673ffffffffffffffffffffffffffffffffffffffff16815260200190815260200160002060009054906101000a900460ff1660ff161180156120945750600f601160006001600360009054906101000a900460ff1660ff1660028110151561202557fe5b0160009054906101000a900473ffffffffffffffffffffffffffffffffffffffff1673ffffffffffffffffffffffffffffffffffffffff1673ffffffffffffffffffffffffffffffffffffffff16815260200190815260200160002060009054906101000a900460ff1660ff16105b156128cd576001151584151514156124b95760098260ff1610801561222e57506000806001600360009054906101000a900460ff1660ff166002811015156120d857fe5b0160009054906101000a900473ffffffffffffffffffffffffffffffffffffffff1673ffffffffffffffffffffffffffffffffffffffff1673ffffffffffffffffffffffffffffffffffffffff1681526020019081526020016000208360ff16600a8110151561214457fe5b018260ff16600a8110151561215557fe5b602091828204019190069054906101000a900460ff168061222c57506000806001600360009054906101000a900460ff1660ff1660028110151561219557fe5b0160009054906101000a900473ffffffffffffffffffffffffffffffffffffffff1673ffffffffffffffffffffffffffffffffffffffff1673ffffffffffffffffffffffffffffffffffffffff1681526020019081526020016000208360ff16600a8110151561220157fe5b016001830160ff16600a8110151561221557fe5b602091828204019190069054906101000a900460ff165b155b151561223957600080fd5b600090505b60028160ff1610156124b45760016000806001600360009054906101000a900460ff1660ff1660028110151561227057fe5b0160009054906101000a900473ffffffffffffffffffffffffffffffffffffffff1673ffffffffffffffffffffffffffffffffffffffff1673ffffffffffffffffffffffffffffffffffffffff1681526020019081526020016000208460ff16600a811015156122dc57fe5b0182840160ff16600a811015156122ef57fe5b602091828204019190066101000a81548160ff021916908315150217905550600a8183010283016006600360009054906101000a900460ff1660ff1660028110151561233757fe5b01601160006001600360009054906101000a900460ff1660ff1660028110151561235d57fe5b0160009054906101000a900473ffffffffffffffffffffffffffffffffffffffff1673ffffffffffffffffffffffffffffffffffffffff1673ffffffffffffffffffffffffffffffffffffffff16815260200190815260200160002060009054906101000a900460ff1660ff166014811015156123d657fe5b602091828204019190066101000a81548160ff021916908360ff160217905550601160006001600360009054906101000a900460ff1660ff1660028110151561241b57fe5b0160009054906101000a900473ffffffffffffffffffffffffffffffffffffffff1673ffffffffffffffffffffffffffffffffffffffff1673ffffffffffffffffffffffffffffffffffffffff168152602001908152602001600020600081819054906101000a900460ff168092919060010191906101000a81548160ff021916908360ff16021790555050808060010191505061223e565b6128c8565b60098360ff1610801561264157506000806001600360009054906101000a900460ff1660ff166002811015156124eb57fe5b0160009054906101000a900473ffffffffffffffffffffffffffffffffffffffff1673ffffffffffffffffffffffffffffffffffffffff1673ffffffffffffffffffffffffffffffffffffffff1681526020019081526020016000208360ff16600a8110151561255757fe5b018260ff16600a8110151561256857fe5b602091828204019190069054906101000a900460ff168061263f57506000806001600360009054906101000a900460ff1660ff166002811015156125a857fe5b0160009054906101000a900473ffffffffffffffffffffffffffffffffffffffff1673ffffffffffffffffffffffffffffffffffffffff1673ffffffffffffffffffffffffffffffffffffffff1681526020019081526020016000206001840160ff16600a8110151561261757fe5b018260ff16600a8110151561262857fe5b602091828204019190069054906101000a900460ff165b155b151561264c57600080fd5b600090505b60028160ff1610156128c75760016000806001600360009054906101000a900460ff1660ff1660028110151561268357fe5b0160009054906101000a900473ffffffffffffffffffffffffffffffffffffffff1673ffffffffffffffffffffffffffffffffffffffff1673ffffffffffffffffffffffffffffffffffffffff16815260200190815260200160002082850160ff16600a811015156126f157fe5b018360ff16600a8110151561270257fe5b602091828204019190066101000a81548160ff021916908315150217905550600a8202818401016006600360009054906101000a900460ff1660ff1660028110151561274a57fe5b01601160006001600360009054906101000a900460ff1660ff1660028110151561277057fe5b0160009054906101000a900473ffffffffffffffffffffffffffffffffffffffff1673ffffffffffffffffffffffffffffffffffffffff1673ffffffffffffffffffffffffffffffffffffffff16815260200190815260200160002060009054906101000a900460ff1660ff166014811015156127e957fe5b602091828204019190066101000a81548160ff021916908360ff160217905550601160006001600360009054906101000a900460ff1660ff1660028110151561282e57fe5b0160009054906101000a900473ffffffffffffffffffffffffffffffffffffffff1673ffffffffffffffffffffffffffffffffffffffff1673ffffffffffffffffffffffffffffffffffffffff168152602001908152602001600020600081819054906101000a900460ff168092919060010191906101000a81548160ff021916908360ff160217905550508080600101915050612651565b5b612d24565b600f601160006001600360009054906101000a900460ff1660ff166002811015156128f457fe5b0160009054906101000a900473ffffffffffffffffffffffffffffffffffffffff1673ffffffffffffffffffffffffffffffffffffffff1673ffffffffffffffffffffffffffffffffffffffff16815260200190815260200160002060009054906101000a900460ff1660ff161180156129ff57506014601160006001600360009054906101000a900460ff1660ff1660028110151561299057fe5b0160009054906101000a900473ffffffffffffffffffffffffffffffffffffffff1673ffffffffffffffffffffffffffffffffffffffff1673ffffffffffffffffffffffffffffffffffffffff16815260200190815260200160002060009054906101000a900460ff1660ff16105b8015612abf57506000806001600360009054906101000a900460ff1660ff16600281101515612a2a57fe5b0160009054906101000a900473ffffffffffffffffffffffffffffffffffffffff1673ffffffffffffffffffffffffffffffffffffffff1673ffffffffffffffffffffffffffffffffffffffff1681526020019081526020016000208360ff16600a81101515612a9657fe5b018260ff16600a81101515612aa757fe5b602091828204019190069054906101000a900460ff16155b1515612aca57600080fd5b60016000806001600360009054906101000a900460ff1660ff16600281101515612af057fe5b0160009054906101000a900473ffffffffffffffffffffffffffffffffffffffff1673ffffffffffffffffffffffffffffffffffffffff1673ffffffffffffffffffffffffffffffffffffffff1681526020019081526020016000208460ff16600a81101515612b5c57fe5b018360ff16600a81101515612b6d57fe5b602091828204019190066101000a81548160ff021916908315150217905550600a820283016006600360009054906101000a900460ff1660ff16600281101515612bb357fe5b01601160006001600360009054906101000a900460ff1660ff16600281101515612bd957fe5b0160009054906101000a900473ffffffffffffffffffffffffffffffffffffffff1673ffffffffffffffffffffffffffffffffffffffff1673ffffffffffffffffffffffffffffffffffffffff16815260200190815260200160002060009054906101000a900460ff1660ff16601481101515612c5257fe5b602091828204019190066101000a81548160ff021916908360ff160217905550601160006001600360009054906101000a900460ff1660ff16600281101515612c9757fe5b0160009054906101000a900473ffffffffffffffffffffffffffffffffffffffff1673ffffffffffffffffffffffffffffffffffffffff1673ffffffffffffffffffffffffffffffffffffffff168152602001908152602001600020600081819054906101000a900460ff168092919060010191906101000a81548160ff021916908360ff160217905550505b5b5b50505050565b600060016000600281101515612d3e57fe5b0160009054906101000a900473ffffffffffffffffffffffffffffffffffffffff1673ffffffffffffffffffffffffffffffffffffffff163373ffffffffffffffffffffffffffffffffffffffff161480612df45750600180600281101515612da357fe5b0160009054906101000a900473ffffffffffffffffffffffffffffffffffffffff1673ffffffffffffffffffffffffffffffffffffffff163373ffffffffffffffffffffffffffffffffffffffff16145b1515612dff57600080fd5b60016000600281101515612e0f57fe5b0160009054906101000a900473ffffffffffffffffffffffffffffffffffffffff1673ffffffffffffffffffffffffffffffffffffffff163373ffffffffffffffffffffffffffffffffffffffff161415612e85576000600360006101000a81548160ff021916908360ff160217905550612ea2565b6001600360006101000a81548160ff021916908360ff1602179055505b60011515600360019054906101000a900460ff161515148015612ed8575060001515600360029054906101000a900460ff161515145b1515612ee357600080fd5b81600a02830190506000600360009054906101000a900460ff1660ff161415612f2c57600115156003809054906101000a900460ff161515141515612f2757600080fd5b612f4e565b600015156003809054906101000a900460ff161515141515612f4d57600080fd5b5b600115156003809054906101000a900460ff16151514156132d35760011515600080600180600281101515612f7f57fe5b0160009054906101000a900473ffffffffffffffffffffffffffffffffffffffff1673ffffffffffffffffffffffffffffffffffffffff1673ffffffffffffffffffffffffffffffffffffffff1681526020019081526020016000208460ff16600a81101515612feb57fe5b018360ff16600a81101515612ffc57fe5b602091828204019190069054906101000a900460ff1615151415613201576011600060018060028110151561302d57fe5b0160009054906101000a900473ffffffffffffffffffffffffffffffffffffffff1673ffffffffffffffffffffffffffffffffffffffff1673ffffffffffffffffffffffffffffffffffffffff168152602001908152602001600020600081819054906101000a900460ff16809291906001900391906101000a81548160ff021916908360ff1602179055505080600860016002811015156130cb57fe5b01600460016002811015156130dc57fe5b602091828204019190069054906101000a900460ff1660ff1660148110151561310157fe5b602091828204019190066101000a81548160ff021916908360ff1602179055506004600160028110151561313157fe5b6020918282040191900681819054906101000a900460ff168092919060010191906101000a81548160ff021916908360ff1602179055505060006011600060018060028110151561317e57fe5b0160009054906101000a900473ffffffffffffffffffffffffffffffffffffffff1673ffffffffffffffffffffffffffffffffffffffff1673ffffffffffffffffffffffffffffffffffffffff16815260200190815260200160002060009054906101000a900460ff1660ff1614156131fc576131fb6000613fb8565b5b6132ce565b60006003806101000a81548160ff0219169083151502179055506005600160028110151561322b57fe5b6020918282040191900681819054906101000a900460ff168092919060010191906101000a81548160ff021916908360ff1602179055505080600a600160028110151561327457fe5b600302016005600160028110151561328857fe5b602091828204019190069054906101000a900460ff1660ff166050811015156132ad57fe5b602091828204019190066101000a81548160ff021916908360ff1602179055505b613658565b600015156003809054906101000a900460ff161515141561365757600115156000806001600060028110151561330557fe5b0160009054906101000a900473ffffffffffffffffffffffffffffffffffffffff1673ffffffffffffffffffffffffffffffffffffffff1673ffffffffffffffffffffffffffffffffffffffff1681526020019081526020016000208460ff16600a8110151561337157fe5b018360ff16600a8110151561338257fe5b602091828204019190069054906101000a900460ff16151514156135895760116000600160006002811015156133b457fe5b0160009054906101000a900473ffffffffffffffffffffffffffffffffffffffff1673ffffffffffffffffffffffffffffffffffffffff1673ffffffffffffffffffffffffffffffffffffffff168152602001908152602001600020600081819054906101000a900460ff16809291906001900391906101000a81548160ff021916908360ff16021790555050806008600060028110151561345257fe5b016004600060028110151561346357fe5b602091828204019190069054906101000a900460ff1660ff1660148110151561348857fe5b602091828204019190066101000a81548160ff021916908360ff160217905550600460006002811015156134b857fe5b6020918282040191900681819054906101000a900460ff168092919060010191906101000a81548160ff021916908360ff160217905550506000601160006001600060028110151561350657fe5b0160009054906101000a900473ffffffffffffffffffffffffffffffffffffffff1673ffffffffffffffffffffffffffffffffffffffff1673ffffffffffffffffffffffffffffffffffffffff16815260200190815260200160002060009054906101000a900460ff1660ff161415613584576135836001613fb8565b5b613656565b60016003806101000a81548160ff02191690831515021790555080600a60006002811015156135b457fe5b60030201600560006002811015156135c857fe5b602091828204019190069054906101000a900460ff1660ff166050811015156135ed57fe5b602091828204019190066101000a81548160ff021916908360ff1602179055506005600060028110151561361d57fe5b6020918282040191900681819054906101000a900460ff168092919060010191906101000a81548160ff021916908360ff160217905550505b5b5b505050565b6000601160003373ffffffffffffffffffffffffffffffffffffffff1673ffffffffffffffffffffffffffffffffffffffff16815260200190815260200160002060009054906101000a900460ff16905090565b6136b9614071565b6136c16140c2565b600160006002811015156136d157fe5b0160009054906101000a900473ffffffffffffffffffffffffffffffffffffffff1673ffffffffffffffffffffffffffffffffffffffff163373ffffffffffffffffffffffffffffffffffffffff161480613787575060018060028110151561373657fe5b0160009054906101000a900473ffffffffffffffffffffffffffffffffffffffff1673ffffffffffffffffffffffffffffffffffffffff163373ffffffffffffffffffffffffffffffffffffffff16145b156138d0576008600a81600280602002604051908101604052809291906000905b8282101561382457838201601480602002604051908101604052809291908260148015613810576020028201916000905b82829054906101000a900460ff1660ff16815260200190600101906020826000010492830192600103820291508084116137d95790505b5050505050815260200190600101906137a8565b50505050915080600280602002604051908101604052809291906000905b828210156138c1578382600302016050806020026040519081016040528092919082605080156138ad576020028201916000905b82829054906101000a900460ff1660ff16815260200190600101906020826000010492830192600103820291508084116138765790505b505050505081526020019060010190613842565b505050509050915091506138d1565b5b9091565b600080600073ffffffffffffffffffffffffffffffffffffffff166001806002811015156138ff57fe5b0160009054906101000a900473ffffffffffffffffffffffffffffffffffffffff1673ffffffffffffffffffffffffffffffffffffffff161480156139a157506001600060028110151561394f57fe5b0160009054906101000a900473ffffffffffffffffffffffffffffffffffffffff1673ffffffffffffffffffffffffffffffffffffffff163373ffffffffffffffffffffffffffffffffffffffff1614155b80613a715750600073ffffffffffffffffffffffffffffffffffffffff16600160006002811015156139cf57fe5b0160009054906101000a900473ffffffffffffffffffffffffffffffffffffffff1673ffffffffffffffffffffffffffffffffffffffff16148015613a705750600180600281101515613a1e57fe5b0160009054906101000a900473ffffffffffffffffffffffffffffffffffffffff1673ffffffffffffffffffffffffffffffffffffffff163373ffffffffffffffffffffffffffffffffffffffff1614155b5b1515613a7c57600080fd5b600073ffffffffffffffffffffffffffffffffffffffff16600180600281101515613aa357fe5b0160009054906101000a900473ffffffffffffffffffffffffffffffffffffffff1673ffffffffffffffffffffffffffffffffffffffff161415613b355733600180600281101515613af157fe5b0160006101000a81548173ffffffffffffffffffffffffffffffffffffffff021916908373ffffffffffffffffffffffffffffffffffffffff160217905550613b86565b3360016000600281101515613b4657fe5b0160006101000a81548173ffffffffffffffffffffffffffffffffffffffff021916908373ffffffffffffffffffffffffffffffffffffffff1602179055505b600091505b600a821015613c3657600090505b600a811015613c295760008060003373ffffffffffffffffffffffffffffffffffffffff1673ffffffffffffffffffffffffffffffffffffffff16815260200190815260200160002083600a81101515613bef57fe5b0182600a81101515613bfd57fe5b602091828204019190066101000a81548160ff0219169083151502179055508080600101915050613b99565b8180600101925050613b8b565b5050565b60003373ffffffffffffffffffffffffffffffffffffffff1660016000600281101515613c6357fe5b0160009054906101000a900473ffffffffffffffffffffffffffffffffffffffff1673ffffffffffffffffffffffffffffffffffffffff161415613caa5760009050613d18565b3373ffffffffffffffffffffffffffffffffffffffff16600180600281101515613cd057fe5b0160009054906101000a900473ffffffffffffffffffffffffffffffffffffffff1673ffffffffffffffffffffffffffffffffffffffff161415613d175760019050613d18565b5b90565b600882600281101515613d2a57fe5b0181601481101515613d3857fe5b60209182820401919006915091509054906101000a900460ff1681565b613d5d6140f1565b60016000600281101515613d6d57fe5b0160009054906101000a900473ffffffffffffffffffffffffffffffffffffffff1673ffffffffffffffffffffffffffffffffffffffff163373ffffffffffffffffffffffffffffffffffffffff161415613e3c5760066000600281101515613dd257fe5b01601480602002604051908101604052809291908260148015613e30576020028201916000905b82829054906101000a900460ff1660ff1681526020019060010190602082600001049283019260010382029150808411613df95790505b50505050509050613f1b565b600180600281101515613e4b57fe5b0160009054906101000a900473ffffffffffffffffffffffffffffffffffffffff1673ffffffffffffffffffffffffffffffffffffffff163373ffffffffffffffffffffffffffffffffffffffff161415613f1a5760066001600281101515613eb057fe5b01601480602002604051908101604052809291908260148015613f0e576020028201916000905b82829054906101000a900460ff1660ff1681526020019060010190602082600001049283019260010382029150808411613ed75790505b50505050509050613f1b565b5b90565b600360019054906101000a900460ff1681565b6000601060003373ffffffffffffffffffffffffffffffffffffffff1673ffffffffffffffffffffffffffffffffffffffff16815260200190815260200160002060009054906101000a900460ff16905090565b600360049054906101000a900460ff1681565b60106020528060005260406000206000915054906101000a900460ff1681565b60008160ff16141561401b576000600360046101000a81548160ff021916908360ff1602179055506000600360016101000a81548160ff0219169083151502179055506001600360026101000a81548160ff02191690831515021790555061406e565b6001600360046101000a81548160ff021916908360ff1602179055506000600360016101000a81548160ff0219169083151502179055506001600360026101000a81548160ff0219169083151502179055505b50565b610500604051908101604052806002905b61408a614115565b8152602001906001900390816140825790505090565b6040805190810160405280600290602082028038833980820191505090505090565b611400604051908101604052806002905b6140db614139565b8152602001906001900390816140d35790505090565b61028060405190810160405280601490602082028038833980820191505090505090565b61028060405190810160405280601490602082028038833980820191505090505090565b610a00604051908101604052806050906020820280388339808201915050905050905600a165627a7a72305820c88fdfbb3ecade148cb3052efe71827fa77c935835f1ed96d2a4e0cbf37e51f20029a165627a7a7230582084168446a78fae66bbcb8d9e23f827bf459980d719136f962c16b7ef525772800029",
  "source": "pragma solidity ^0.4.24;\n\ncontract BattleShip{\n    address[] public contracts;\n    function new_game(bytes20 p2) public returns(address game_address){\n        BattleShip_Game game = new BattleShip_Game(msg.sender,address(p2));\n        contracts.push(address(game));\n        return(address(game));\n    }\n\n    function find_game() public view returns(address[]){\n        require(contracts.length > 0);\n        uint len = contracts.length;\n        address[] memory ingame;\n        ingame = contracts;\n        for(uint8 i=0; i<len;i++){\n            if(BattleShip_Game(contracts[i]).get_player()[0] != msg.sender && BattleShip_Game(contracts[i]).get_player()[1] != msg.sender)\n                delete ingame[i];\n        }\n        return ingame;\n    }\n}\n\ncontract BattleShip_Game{\n\n    mapping (address => bool[10][10]) player_map;\n    address[2] public player;\n    uint8 num;\n    bool public playing;\n    bool public game_end;\n    bool public turn;\n    uint8 public victory;\n    uint8[2] player_ship_destroyed_num;\n    uint8[2] player_ship_missed_num;\n    uint8[20][2] public player_map_data;\n    uint8[20][2] public player_ship_destroyed;\n    uint8[80][2] public player_ship_missed;\n    mapping (address => bool) public ready;\n    mapping (address => uint8) ship_num; //later delete public\n\n    constructor(address player0, address player2) public{\n        victory = 255;\n        playing = false;\n        game_end = false;\n        ready[msg.sender] = false;\n        player[0] = player0;\n        player_ship_missed_num[0] = 0;\n        player_ship_destroyed_num[0] = 0;\n        player_ship_missed_num[1] = 0;\n        player_ship_destroyed_num[1] = 0;\n        ship_num[player0] = 0;\n        for(uint i=0 ; i<10; i++){\n            for(uint j=0; j<10; j++){\n                player_map[player0][i][j] = false;\n            }\n        }\n        if(!(player2==address(0))){\n            player[1] = player2;\n            ready[player2] = false;\n            ship_num[player2] = 0;\n            for(i=0 ; i<10; i++){\n                for(j=0; j<10; j++){\n                    player_map[player2][i][j] = false;\n                }\n            }\n        }\n        for(i = 0 ; i < 20 ; i ++){\n            player_map_data[0][i] = 255;\n            player_map_data[1][i] = 255;\n            player_ship_destroyed[0][i] = 255;\n            player_ship_destroyed[1][i] = 255;\n        }\n        for(i=0;i<80;i++){\n            player_ship_missed[0][i] = 255;\n            player_ship_missed[1][i] = 255;\n        }\n    }\n\n    function get_player() public view returns(address[2]){\n      return player;\n    }\n    function get_ship_num() public view returns(uint8){\n        return ship_num[msg.sender];\n    }\n    function join() public{\n        require((player[1]==address(0) && msg.sender!=player[0]) || (player[0]==address(0) && msg.sender!=player[1]));\n        if(player[1]==address(0)) player[1] = msg.sender;\n        else player[0] = msg.sender;\n        for(uint i=0 ; i<10; i++){\n            for(uint j=0; j<10; j++){\n                player_map[msg.sender][i][j] = false;\n            }\n        }\n    }\n\n    function get_map() public view returns(uint8[20] spot){\n        if (msg.sender == player[0]) return player_map_data[0];\n        else if(msg.sender == player[1]) return player_map_data[1];\n    }\n\n    function get_map_endgame() public view returns(uint8[20][2] map){\n        require(game_end == true);\n        return player_map_data;\n    }\n\n    function get_attacked() public view returns(uint8[20][2] destroyed,uint8[80][2] missed){\n        if (msg.sender == player[0] || msg.sender == player[1]) return (player_ship_destroyed,player_ship_missed);\n    }\n\n    function get_ready() public view returns(bool){\n        return ready[msg.sender];\n    }\n\n    function get_player_num() public view returns(uint8){\n        if (player[0] == msg.sender) return 0;\n        if (player[1] == msg.sender) return 1;\n    }\n\n    function ready() public check_player{\n        require(playing == false && game_end == false && ship_num[player[num]] == 20);\n        ready[player[num]] = true;\n        if((ready[player[0]] == true) && (ready[player[1]] == true)) playing = true;\n    }\n\n    modifier check_player{\n        require(msg.sender == player[0] || msg.sender == player[1]);\n        if(msg.sender == player[0]) num = 0;\n        else num = 1;\n        _;\n    }\n\n    function map_setting(bool vertical, uint8 spot_x, uint8 spot_y) public check_player{\n        // 4 square ship\n        require(playing == false && game_end == false);\n        if (ship_num[player[num]] == 0){\n            if(vertical == true){\n                require(spot_y <7);\n                for(uint8 i = 0; i < 4; i++){\n                    player_map[player[num]][spot_x][spot_y + i] = true;\n                    player_map_data[num][ship_num[player[num]]] = spot_x + ((spot_y + i) * 10);\n                    ship_num[player[num]]++;\n                }\n            }\n            else{\n                require(spot_x <7);\n                for(i = 0; i < 4; i++){\n                    player_map[player[num]][spot_x + i][spot_y] = true;\n                    player_map_data[num][ship_num[player[num]]] = spot_x + i + ((spot_y) * 10);\n                    ship_num[player[num]]++;\n                }\n            }\n        }\n        // 3 square ship\n        else if (ship_num[player[num]] == 4 || ship_num[player[num]] == 7){\n            if(vertical == true){\n                require(spot_y <8 && !(player_map[player[num]][spot_x][spot_y] || player_map[player[num]][spot_x][spot_y + 1] || player_map[player[num]][spot_x][spot_y + 2]));\n                for(i = 0; i < 3; i++){\n                    player_map[player[num]][spot_x][spot_y + i] = true;\n                    player_map_data[num][ship_num[player[num]]] = spot_x + ((spot_y + i) * 10);\n                    ship_num[player[num]]++;\n                }\n            }\n            else{\n                require(spot_x <8 && !(player_map[player[num]][spot_x][spot_y] || player_map[player[num]][spot_x + 1][spot_y] || player_map[player[num]][spot_x + 2][spot_y] ));\n                for(i = 0; i < 3; i++){\n                    player_map[player[num]][spot_x + i][spot_y] = true;\n                    player_map_data[num][ship_num[player[num]]] = spot_x + i + ((spot_y) * 10);\n                    ship_num[player[num]]++;\n                }\n            }\n        }\n        // 2 square ship\n        else if (ship_num[player[num]] > 9 && ship_num[player[num]] < 15){\n            if(vertical == true){\n                require(spot_y < 9 && !(player_map[player[num]][spot_x][spot_y] || player_map[player[num]][spot_x][spot_y + 1]));\n                for(i = 0; i < 2; i++){\n                    player_map[player[num]][spot_x][spot_y + i] = true;\n                    player_map_data[num][ship_num[player[num]]] = spot_x + ((spot_y + i) * 10);\n                    ship_num[player[num]]++;\n                }\n            }\n            else{\n                require(spot_x < 9 && !(player_map[player[num]][spot_x][spot_y] || player_map[player[num]][spot_x + 1][spot_y] ));\n                for(i = 0; i < 2; i++){\n                    player_map[player[num]][spot_x + i][spot_y] = true;\n                    player_map_data[num][ship_num[player[num]]] = spot_x + i + ((spot_y) * 10);\n                    ship_num[player[num]]++;\n                }\n            }\n        }\n        // 1 square ship\n        else{\n            require(ship_num[player[num]] > 15 && ship_num[player[num]] < 20 && !(player_map[player[num]][spot_x][spot_y]));\n            player_map[player[num]][spot_x][spot_y] = true;\n            player_map_data[num][ship_num[player[num]]] = spot_x + ((spot_y) * 10);\n            ship_num[player[num]]++;\n        }\n    }\n\n    function attack_ship(uint8 spot_x, uint8 spot_y) public check_player{\n        require(playing == true && game_end == false);\n        uint8 temp;\n        temp = spot_x + 10 * spot_y;\n        if(num == 0) require(turn == true);\n        else require(turn == false);\n        if(turn == true){\n            if(player_map[player[1]][spot_x][spot_y] == true){\n                ship_num[player[1]]--;\n                player_ship_destroyed[1][player_ship_destroyed_num[1]] = temp;\n                player_ship_destroyed_num[1]++;\n                if(ship_num[player[1]] == 0) end_game(0);\n            }\n            else{\n                turn = false;\n                player_ship_missed_num[1]++;\n                player_ship_missed[1][player_ship_missed_num[1]] = temp;\n            }\n        }\n        else if(turn ==false){\n            if(player_map[player[0]][spot_x][spot_y] == true){\n                ship_num[player[0]]--;\n                player_ship_destroyed[0][player_ship_destroyed_num[0]] = temp;\n                player_ship_destroyed_num[0]++;\n                if(ship_num[player[0]] == 0) end_game(1);\n            }\n            else{\n                turn = true;\n                player_ship_missed[0][player_ship_missed_num[0]] = temp;\n                player_ship_missed_num[0]++;\n            }\n        }\n    }\n\n    function end_game(uint8 who) internal{\n        if(who == 0){\n            victory = 0;\n            playing = false;\n            game_end = true;\n        }\n        else{\n            victory = 1;\n            playing = false;\n            game_end = true;\n        }\n    }\n}\n",
  "sourcePath": "C:\\consensys\\battleship3\\contracts\\BattleShip.sol",
  "compiler": {
    "name": "solc",
    "version": "0.4.24+commit.e67f0147.Emscripten.clang"
  },
  "schemaVersion": "2.0.1",
  "updatedAt": "2018-08-27T11:36:31.119Z"
}